{
  "contractName": "GanaPreSale",
  "abi": [
    {
      "constant": false,
      "inputs": [
        {
          "name": "buyer",
          "type": "address"
        }
      ],
      "name": "buyGana",
      "outputs": [],
      "payable": true,
      "stateMutability": "payable",
      "type": "function"
    },
    {
      "constant": false,
      "inputs": [],
      "name": "transferToSafe",
      "outputs": [],
      "payable": false,
      "stateMutability": "nonpayable",
      "type": "function"
    },
    {
      "constant": true,
      "inputs": [],
      "name": "defaultRate",
      "outputs": [
        {
          "name": "",
          "type": "uint256"
        }
      ],
      "payable": false,
      "stateMutability": "view",
      "type": "function"
    },
    {
      "constant": true,
      "inputs": [],
      "name": "rate",
      "outputs": [
        {
          "name": "",
          "type": "uint256"
        }
      ],
      "payable": false,
      "stateMutability": "view",
      "type": "function"
    },
    {
      "constant": true,
      "inputs": [],
      "name": "endTime",
      "outputs": [
        {
          "name": "",
          "type": "uint256"
        }
      ],
      "payable": false,
      "stateMutability": "view",
      "type": "function"
    },
    {
      "constant": true,
      "inputs": [],
      "name": "minCap",
      "outputs": [
        {
          "name": "",
          "type": "uint256"
        }
      ],
      "payable": false,
      "stateMutability": "view",
      "type": "function"
    },
    {
      "constant": true,
      "inputs": [],
      "name": "weiRaised",
      "outputs": [
        {
          "name": "",
          "type": "uint256"
        }
      ],
      "payable": false,
      "stateMutability": "view",
      "type": "function"
    },
    {
      "constant": false,
      "inputs": [
        {
          "name": "reserveWallet",
          "type": "address"
        }
      ],
      "name": "burnAndReturnAfterEnded",
      "outputs": [],
      "payable": false,
      "stateMutability": "nonpayable",
      "type": "function"
    },
    {
      "constant": true,
      "inputs": [],
      "name": "wallet",
      "outputs": [
        {
          "name": "",
          "type": "address"
        }
      ],
      "payable": false,
      "stateMutability": "view",
      "type": "function"
    },
    {
      "constant": true,
      "inputs": [],
      "name": "startTime",
      "outputs": [
        {
          "name": "",
          "type": "uint256"
        }
      ],
      "payable": false,
      "stateMutability": "view",
      "type": "function"
    },
    {
      "constant": true,
      "inputs": [],
      "name": "owner",
      "outputs": [
        {
          "name": "",
          "type": "address"
        }
      ],
      "payable": false,
      "stateMutability": "view",
      "type": "function"
    },
    {
      "constant": true,
      "inputs": [],
      "name": "whitelist",
      "outputs": [
        {
          "name": "",
          "type": "address"
        }
      ],
      "payable": false,
      "stateMutability": "view",
      "type": "function"
    },
    {
      "constant": true,
      "inputs": [],
      "name": "gana",
      "outputs": [
        {
          "name": "",
          "type": "address"
        }
      ],
      "payable": false,
      "stateMutability": "view",
      "type": "function"
    },
    {
      "constant": true,
      "inputs": [],
      "name": "hasEnded",
      "outputs": [
        {
          "name": "",
          "type": "bool"
        }
      ],
      "payable": false,
      "stateMutability": "view",
      "type": "function"
    },
    {
      "constant": false,
      "inputs": [
        {
          "name": "newOwner",
          "type": "address"
        }
      ],
      "name": "transferOwnership",
      "outputs": [],
      "payable": false,
      "stateMutability": "nonpayable",
      "type": "function"
    },
    {
      "constant": false,
      "inputs": [
        {
          "name": "returnAddress",
          "type": "address"
        }
      ],
      "name": "returnGanaBeforeSale",
      "outputs": [],
      "payable": false,
      "stateMutability": "nonpayable",
      "type": "function"
    },
    {
      "constant": true,
      "inputs": [],
      "name": "hardCap",
      "outputs": [
        {
          "name": "",
          "type": "uint256"
        }
      ],
      "payable": false,
      "stateMutability": "view",
      "type": "function"
    },
    {
      "inputs": [
        {
          "name": "_gana",
          "type": "address"
        },
        {
          "name": "_wallet",
          "type": "address"
        },
        {
          "name": "_whitelist",
          "type": "address"
        }
      ],
      "payable": false,
      "stateMutability": "nonpayable",
      "type": "constructor"
    },
    {
      "payable": true,
      "stateMutability": "payable",
      "type": "fallback"
    },
    {
      "anonymous": false,
      "inputs": [
        {
          "indexed": true,
          "name": "sender",
          "type": "address"
        },
        {
          "indexed": true,
          "name": "buyer",
          "type": "address"
        },
        {
          "indexed": false,
          "name": "weiAmount",
          "type": "uint256"
        },
        {
          "indexed": false,
          "name": "ganaAmount",
          "type": "uint256"
        }
      ],
      "name": "TokenPurchase",
      "type": "event"
    },
    {
      "anonymous": false,
      "inputs": [
        {
          "indexed": true,
          "name": "buyer",
          "type": "address"
        },
        {
          "indexed": false,
          "name": "weiAmount",
          "type": "uint256"
        }
      ],
      "name": "Refund",
      "type": "event"
    },
    {
      "anonymous": false,
      "inputs": [],
      "name": "TransferToSafe",
      "type": "event"
    },
    {
      "anonymous": false,
      "inputs": [
        {
          "indexed": false,
          "name": "burnAmount",
          "type": "uint256"
        },
        {
          "indexed": false,
          "name": "returnAmount",
          "type": "uint256"
        }
      ],
      "name": "BurnAndReturnAfterEnded",
      "type": "event"
    },
    {
      "anonymous": false,
      "inputs": [
        {
          "indexed": true,
          "name": "previousOwner",
          "type": "address"
        },
        {
          "indexed": true,
          "name": "newOwner",
          "type": "address"
        }
      ],
      "name": "OwnershipTransferred",
      "type": "event"
    }
  ],
  "bytecode": "0x606060405269021e19e0c9bab240000060045560006005556729a2241af62c00006006556155f0600755614e20600855635ac74520600955635ad322a0600a55341561004a57600080fd5b60405160608061161483398101604052808051906020019091908051906020019091908051906020019091905050336000806101000a81548173ffffffffffffffffffffffffffffffffffffffff021916908373ffffffffffffffffffffffffffffffffffffffff160217905550600073ffffffffffffffffffffffffffffffffffffffff168273ffffffffffffffffffffffffffffffffffffffff16141515156100f457600080fd5b82600160006101000a81548173ffffffffffffffffffffffffffffffffffffffff021916908373ffffffffffffffffffffffffffffffffffffffff16021790555080600260006101000a81548173ffffffffffffffffffffffffffffffffffffffff021916908373ffffffffffffffffffffffffffffffffffffffff16021790555081600360006101000a81548173ffffffffffffffffffffffffffffffffffffffff021916908373ffffffffffffffffffffffffffffffffffffffff16021790555050505061144b806101c96000396000f3006060604052600436106100f1576000357c0100000000000000000000000000000000000000000000000000000000900463ffffffff168063075deb95146100fc57806315d3e0a31461012a5780632616501d1461013f5780632c4e722e146101685780633197cbb6146101915780633fa615b0146101ba5780634042b66f146101e35780634eb259aa1461020c578063521eb2731461024557806378e979251461029a5780638da5cb5b146102c357806393e59dc114610318578063a78cdfed1461036d578063ecb70fb7146103c2578063f2fde38b146103ef578063f80f96f614610428578063fb86a40414610461575b6100fa3361048a565b005b610128600480803573ffffffffffffffffffffffffffffffffffffffff1690602001909190505061048a565b005b341561013557600080fd5b61013d610a14565b005b341561014a57600080fd5b610152610b29565b6040518082815260200191505060405180910390f35b341561017357600080fd5b61017b610b2f565b6040518082815260200191505060405180910390f35b341561019c57600080fd5b6101a4610b35565b6040518082815260200191505060405180910390f35b34156101c557600080fd5b6101cd610b3b565b6040518082815260200191505060405180910390f35b34156101ee57600080fd5b6101f6610b41565b6040518082815260200191505060405180910390f35b341561021757600080fd5b610243600480803573ffffffffffffffffffffffffffffffffffffffff16906020019091905050610b47565b005b341561025057600080fd5b610258610f00565b604051808273ffffffffffffffffffffffffffffffffffffffff1673ffffffffffffffffffffffffffffffffffffffff16815260200191505060405180910390f35b34156102a557600080fd5b6102ad610f26565b6040518082815260200191505060405180910390f35b34156102ce57600080fd5b6102d6610f2c565b604051808273ffffffffffffffffffffffffffffffffffffffff1673ffffffffffffffffffffffffffffffffffffffff16815260200191505060405180910390f35b341561032357600080fd5b61032b610f51565b604051808273ffffffffffffffffffffffffffffffffffffffff1673ffffffffffffffffffffffffffffffffffffffff16815260200191505060405180910390f35b341561037857600080fd5b610380610f77565b604051808273ffffffffffffffffffffffffffffffffffffffff1673ffffffffffffffffffffffffffffffffffffffff16815260200191505060405180910390f35b34156103cd57600080fd5b6103d5610f9d565b604051808215151515815260200191505060405180910390f35b34156103fa57600080fd5b610426600480803573ffffffffffffffffffffffffffffffffffffffff16906020019091905050610fc0565b005b341561043357600080fd5b61045f600480803573ffffffffffffffffffffffffffffffffffffffff16906020019091905050611115565b005b341561046c57600080fd5b61047461138e565b6040518082815260200191505060405180910390f35b6000806000806000600260009054906101000a900473ffffffffffffffffffffffffffffffffffffffff1673ffffffffffffffffffffffffffffffffffffffff1663c683630d336000604051602001526040518263ffffffff167c0100000000000000000000000000000000000000000000000000000000028152600401808273ffffffffffffffffffffffffffffffffffffffff1673ffffffffffffffffffffffffffffffffffffffff168152602001915050602060405180830381600087803b151561055757600080fd5b6102c65a03f1151561056857600080fd5b50505060405180519050151561057d57600080fd5b610585610f9d565b15151561059157600080fd5b610599611394565b15156105a457600080fd5b600073ffffffffffffffffffffffffffffffffffffffff168673ffffffffffffffffffffffffffffffffffffffff16141515156105e057600080fd5b3373ffffffffffffffffffffffffffffffffffffffff168673ffffffffffffffffffffffffffffffffffffffff1614151561061a57600080fd5b600654341015151561062b57600080fd5b349450610643856005546113a190919063ffffffff16565b9350600454841115156107c957610665600754866113bf90919063ffffffff16565b9250600160009054906101000a900473ffffffffffffffffffffffffffffffffffffffff1673ffffffffffffffffffffffffffffffffffffffff1663a51a868287856000604051602001526040518363ffffffff167c0100000000000000000000000000000000000000000000000000000000028152600401808373ffffffffffffffffffffffffffffffffffffffff1673ffffffffffffffffffffffffffffffffffffffff16815260200182815260200192505050602060405180830381600087803b151561073457600080fd5b6102c65a03f1151561074557600080fd5b5050506040518051905050836005819055508573ffffffffffffffffffffffffffffffffffffffff163373ffffffffffffffffffffffffffffffffffffffff167f623b3804fa71d67900d064613da8f94b9617215ee90799290593e1745087ad188786604051808381526020018281526020019250505060405180910390a3610a0c565b6107de600454856113fa90919063ffffffff16565b91506107f382866113fa90919063ffffffff16565b905061080a600754826113bf90919063ffffffff16565b9250600160009054906101000a900473ffffffffffffffffffffffffffffffffffffffff1673ffffffffffffffffffffffffffffffffffffffff1663a51a868287856000604051602001526040518363ffffffff167c0100000000000000000000000000000000000000000000000000000000028152600401808373ffffffffffffffffffffffffffffffffffffffff1673ffffffffffffffffffffffffffffffffffffffff16815260200182815260200192505050602060405180830381600087803b15156108d957600080fd5b6102c65a03f115156108ea57600080fd5b505050604051805190505061090a816005546113a190919063ffffffff16565b6005819055508573ffffffffffffffffffffffffffffffffffffffff163373ffffffffffffffffffffffffffffffffffffffff167f623b3804fa71d67900d064613da8f94b9617215ee90799290593e1745087ad188386604051808381526020018281526020019250505060405180910390a38573ffffffffffffffffffffffffffffffffffffffff166108fc839081150290604051600060405180830381858888f1935050505015156109bd57600080fd5b8573ffffffffffffffffffffffffffffffffffffffff167fbb28353e4598c3b9199101a66e0989549b659a59a54d2c27fbb183f1932c8e6d836040518082815260200191505060405180910390a25b505050505050565b6000809054906101000a900473ffffffffffffffffffffffffffffffffffffffff1673ffffffffffffffffffffffffffffffffffffffff163373ffffffffffffffffffffffffffffffffffffffff16141515610a6f57600080fd5b610a77610f9d565b1515610a8257600080fd5b600360009054906101000a900473ffffffffffffffffffffffffffffffffffffffff1673ffffffffffffffffffffffffffffffffffffffff166108fc3073ffffffffffffffffffffffffffffffffffffffff16319081150290604051600060405180830381858888f193505050501515610afb57600080fd5b7fd199affd05325a27b0e0712711930c851835f6f9ea725c80b75aaa5022930b9760405160405180910390a1565b60085481565b60075481565b600a5481565b60065481565b60055481565b6000806000806000809054906101000a900473ffffffffffffffffffffffffffffffffffffffff1673ffffffffffffffffffffffffffffffffffffffff163373ffffffffffffffffffffffffffffffffffffffff16141515610ba857600080fd5b600073ffffffffffffffffffffffffffffffffffffffff168573ffffffffffffffffffffffffffffffffffffffff1614151515610be457600080fd5b610bec610f9d565b1515610bf757600080fd5b610c0e6005546004546113fa90919063ffffffff16565b9350600084111515610c1f57600080fd5b600160009054906101000a900473ffffffffffffffffffffffffffffffffffffffff1673ffffffffffffffffffffffffffffffffffffffff166370a08231306000604051602001526040518263ffffffff167c0100000000000000000000000000000000000000000000000000000000028152600401808273ffffffffffffffffffffffffffffffffffffffff1673ffffffffffffffffffffffffffffffffffffffff168152602001915050602060405180830381600087803b1515610ce457600080fd5b6102c65a03f11515610cf557600080fd5b505050604051805190509250610d16600854856113bf90919063ffffffff16565b9150610d2b82846113fa90919063ffffffff16565b9050600160009054906101000a900473ffffffffffffffffffffffffffffffffffffffff1673ffffffffffffffffffffffffffffffffffffffff166342966c68836040518263ffffffff167c010000000000000000000000000000000000000000000000000000000002815260040180828152602001915050600060405180830381600087803b1515610dbd57600080fd5b6102c65a03f11515610dce57600080fd5b505050600160009054906101000a900473ffffffffffffffffffffffffffffffffffffffff1673ffffffffffffffffffffffffffffffffffffffff1663a51a868286836000604051602001526040518363ffffffff167c0100000000000000000000000000000000000000000000000000000000028152600401808373ffffffffffffffffffffffffffffffffffffffff1673ffffffffffffffffffffffffffffffffffffffff16815260200182815260200192505050602060405180830381600087803b1515610e9e57600080fd5b6102c65a03f11515610eaf57600080fd5b50505060405180519050507f011ce8bfb61c9db9fd6bd20bfadf06bf5ccb2d1c694752bf7aa91ce195fdae7b8282604051808381526020018281526020019250505060405180910390a15050505050565b600360009054906101000a900473ffffffffffffffffffffffffffffffffffffffff1681565b60095481565b6000809054906101000a900473ffffffffffffffffffffffffffffffffffffffff1681565b600260009054906101000a900473ffffffffffffffffffffffffffffffffffffffff1681565b600160009054906101000a900473ffffffffffffffffffffffffffffffffffffffff1681565b600080600454600554101590508080610fba5750610fb9611413565b5b91505090565b6000809054906101000a900473ffffffffffffffffffffffffffffffffffffffff1673ffffffffffffffffffffffffffffffffffffffff163373ffffffffffffffffffffffffffffffffffffffff1614151561101b57600080fd5b600073ffffffffffffffffffffffffffffffffffffffff168173ffffffffffffffffffffffffffffffffffffffff161415151561105757600080fd5b8073ffffffffffffffffffffffffffffffffffffffff166000809054906101000a900473ffffffffffffffffffffffffffffffffffffffff1673ffffffffffffffffffffffffffffffffffffffff167f8be0079c531659141344cd1fd0a4f28419497f9722a3daafe3b4186f6b6457e060405160405180910390a3806000806101000a81548173ffffffffffffffffffffffffffffffffffffffff021916908373ffffffffffffffffffffffffffffffffffffffff16021790555050565b60008060009054906101000a900473ffffffffffffffffffffffffffffffffffffffff1673ffffffffffffffffffffffffffffffffffffffff163373ffffffffffffffffffffffffffffffffffffffff1614151561117257600080fd5b600073ffffffffffffffffffffffffffffffffffffffff168273ffffffffffffffffffffffffffffffffffffffff16141515156111ae57600080fd5b60006005541415156111bf57600080fd5b600160009054906101000a900473ffffffffffffffffffffffffffffffffffffffff1673ffffffffffffffffffffffffffffffffffffffff166370a08231306000604051602001526040518263ffffffff167c0100000000000000000000000000000000000000000000000000000000028152600401808273ffffffffffffffffffffffffffffffffffffffff1673ffffffffffffffffffffffffffffffffffffffff168152602001915050602060405180830381600087803b151561128457600080fd5b6102c65a03f1151561129557600080fd5b505050604051805190509050600160009054906101000a900473ffffffffffffffffffffffffffffffffffffffff1673ffffffffffffffffffffffffffffffffffffffff1663a51a868283836000604051602001526040518363ffffffff167c0100000000000000000000000000000000000000000000000000000000028152600401808373ffffffffffffffffffffffffffffffffffffffff1673ffffffffffffffffffffffffffffffffffffffff16815260200182815260200192505050602060405180830381600087803b151561136e57600080fd5b6102c65a03f1151561137f57600080fd5b50505060405180519050505050565b60045481565b6000600954421015905090565b60008082840190508381101515156113b557fe5b8091505092915050565b60008060008414156113d457600091506113f3565b82840290508284828115156113e557fe5b041415156113ef57fe5b8091505b5092915050565b600082821115151561140857fe5b818303905092915050565b6000600a5442119050905600a165627a7a72305820da2df8f95a55905250f0fb83256d9733dcf3a5a0ef30e4cb75aafa8e04c277b30029",
  "source": "pragma solidity ^0.4.18;\r\n\r\n\r\n/**\r\n * @title SafeMath\r\n * @dev Math operations with safety checks that throw on error\r\n */\r\nlibrary SafeMath {\r\n\r\n  function mul(uint256 a, uint256 b) internal pure returns (uint256) {\r\n    if (a == 0) {\r\n      return 0;\r\n    }\r\n    uint256 c = a * b;\r\n    assert(c / a == b);\r\n    return c;\r\n  }\r\n\r\n  function div(uint256 a, uint256 b) internal pure returns (uint256) {\r\n    // assert(b > 0); // Solidity automatically throws when dividing by 0\r\n    uint256 c = a / b;\r\n    // assert(a == b * c + a % b); // There is no case in which this doesn't hold\r\n    return c;\r\n  }\r\n\r\n  function sub(uint256 a, uint256 b) internal pure returns (uint256) {\r\n    assert(b <= a);\r\n    return a - b;\r\n  }\r\n\r\n  function add(uint256 a, uint256 b) internal pure returns (uint256) {\r\n    uint256 c = a + b;\r\n    assert(c >= a);\r\n    return c;\r\n  }\r\n\r\n}\r\n\r\n\r\n/**\r\n * @title Ownable\r\n * @dev The Ownable contract has an owner address, and provides basic authorization control\r\n * functions, this simplifies the implementation of \"user permissions\".\r\n */\r\ncontract Ownable {\r\n\r\n  address public owner;\r\n\r\n  event OwnershipTransferred(address indexed previousOwner, address indexed newOwner);\r\n\r\n  /**\r\n   * @dev The Ownable constructor sets the original `owner` of the contract to the sender\r\n   * account.\r\n   */\r\n  function Ownable() public {\r\n    owner = msg.sender;\r\n  }\r\n\r\n  /**\r\n   * @dev Throws if called by any account other than the owner.\r\n   */\r\n  modifier onlyOwner() {\r\n    require(msg.sender == owner);\r\n    _;\r\n  }\r\n\r\n  /**\r\n   * @dev Allows the current owner to transfer control of the contract to a newOwner.\r\n   * @param newOwner The address to transfer ownership to.\r\n   */\r\n  function transferOwnership(address newOwner) public onlyOwner {\r\n    require(newOwner != address(0));\r\n    OwnershipTransferred(owner, newOwner);\r\n    owner = newOwner;\r\n  }\r\n\r\n}\r\n\r\n\r\n/**\r\n * @title ERC20Basic\r\n * @dev Simpler version of ERC20 interface\r\n * @dev see https://github.com/ethereum/EIPs/issues/179\r\n */\r\ncontract ERC20Basic {\r\n\r\n  uint256 public totalSupply;\r\n  function balanceOf(address who) public view returns (uint256);\r\n  function transfer(address to, uint256 value) public returns (bool);\r\n  event Transfer(address indexed from, address indexed to, uint256 value);\r\n\r\n}\r\n\r\n\r\n/**\r\n * @title ERC20 interface\r\n * @dev see https://github.com/ethereum/EIPs/issues/20\r\n */\r\ncontract ERC20 is ERC20Basic {\r\n\r\n  function allowance(address owner, address spender) public view returns (uint256);\r\n  function transferFrom(address from, address to, uint256 value) public returns (bool);\r\n  function approve(address spender, uint256 value) public returns (bool);\r\n  event Approval(address indexed owner, address indexed spender, uint256 value);\r\n\r\n}\r\n\r\n\r\n/**\r\n * @title Basic token\r\n * @dev Basic version of StandardToken, with no allowances.\r\n */\r\ncontract BasicToken is ERC20Basic {\r\n\r\n  using SafeMath for uint256;\r\n\r\n  mapping(address => uint256) balances;\r\n\r\n  /**\r\n  * @dev transfer token for a specified address\r\n  * @param _to The address to transfer to.\r\n  * @param _value The amount to be transferred.\r\n  */\r\n  function transfer(address _to, uint256 _value) public returns (bool) {\r\n    require(_to != address(0));\r\n    require(_value <= balances[msg.sender]);\r\n\r\n    // SafeMath.sub will throw if there is not enough balance.\r\n    balances[msg.sender] = balances[msg.sender].sub(_value);\r\n    balances[_to] = balances[_to].add(_value);\r\n    Transfer(msg.sender, _to, _value);\r\n    return true;\r\n  }\r\n\r\n  /**\r\n  * @dev Gets the balance of the specified address.\r\n  * @param _owner The address to query the the balance of.\r\n  * @return An uint256 representing the amount owned by the passed address.\r\n  */\r\n  function balanceOf(address _owner) public view returns (uint256 balance) {\r\n    return balances[_owner];\r\n  }\r\n\r\n}\r\n\r\n\r\n/**\r\n * @title Standard ERC20 token\r\n *\r\n * @dev Implementation of the basic standard token.\r\n * @dev https://github.com/ethereum/EIPs/issues/20\r\n * @dev Based on code by FirstBlood: https://github.com/Firstbloodio/token/blob/master/smart_contract/FirstBloodToken.sol\r\n */\r\ncontract StandardToken is ERC20, BasicToken {\r\n\r\n  mapping (address => mapping (address => uint256)) internal allowed;\r\n\r\n  /**\r\n   * @dev Transfer tokens from one address to another\r\n   * @param _from address The address which you want to send tokens from\r\n   * @param _to address The address which you want to transfer to\r\n   * @param _value uint256 the amount of tokens to be transferred\r\n   */\r\n  function transferFrom(address _from, address _to, uint256 _value) public returns (bool) {\r\n    require(_to != address(0));\r\n    require(_value <= balances[_from]);\r\n    require(_value <= allowed[_from][msg.sender]);\r\n\r\n    balances[_from] = balances[_from].sub(_value);\r\n    balances[_to] = balances[_to].add(_value);\r\n    allowed[_from][msg.sender] = allowed[_from][msg.sender].sub(_value);\r\n    Transfer(_from, _to, _value);\r\n    return true;\r\n  }\r\n\r\n  /**\r\n   * @dev Approve the passed address to spend the specified amount of tokens on behalf of msg.sender.\r\n   *\r\n   * Beware that changing an allowance with this method brings the risk that someone may use both the old\r\n   * and the new allowance by unfortunate transaction ordering. One possible solution to mitigate this\r\n   * race condition is to first reduce the spender's allowance to 0 and set the desired value afterwards:\r\n   * https://github.com/ethereum/EIPs/issues/20#issuecomment-263524729\r\n   * @param _spender The address which will spend the funds.\r\n   * @param _value The amount of tokens to be spent.\r\n   */\r\n  function approve(address _spender, uint256 _value) public returns (bool) {\r\n    allowed[msg.sender][_spender] = _value;\r\n    Approval(msg.sender, _spender, _value);\r\n    return true;\r\n  }\r\n\r\n  /**\r\n   * @dev Function to check the amount of tokens that an owner allowed to a spender.\r\n   * @param _owner address The address which owns the funds.\r\n   * @param _spender address The address which will spend the funds.\r\n   * @return A uint256 specifying the amount of tokens still available for the spender.\r\n   */\r\n  function allowance(address _owner, address _spender) public view returns (uint256) {\r\n    return allowed[_owner][_spender];\r\n  }\r\n\r\n  /**\r\n   * approve should be called when allowed[_spender] == 0. To increment\r\n   * allowed value is better to use this function to avoid 2 calls (and wait until\r\n   * the first transaction is mined)\r\n   * From MonolithDAO Token.sol\r\n   */\r\n  function increaseApproval(address _spender, uint _addedValue) public returns (bool) {\r\n    allowed[msg.sender][_spender] = allowed[msg.sender][_spender].add(_addedValue);\r\n    Approval(msg.sender, _spender, allowed[msg.sender][_spender]);\r\n    return true;\r\n  }\r\n\r\n  function decreaseApproval(address _spender, uint _subtractedValue) public returns (bool) {\r\n    uint oldValue = allowed[msg.sender][_spender];\r\n    if (_subtractedValue > oldValue) {\r\n      allowed[msg.sender][_spender] = 0;\r\n    } else {\r\n      allowed[msg.sender][_spender] = oldValue.sub(_subtractedValue);\r\n    }\r\n    Approval(msg.sender, _spender, allowed[msg.sender][_spender]);\r\n    return true;\r\n  }\r\n\r\n}\r\n\r\n\r\ncontract Releasable is Ownable {\r\n\r\n  event Release();\r\n\r\n  bool public released = false;\r\n\r\n  modifier afterReleased() {\r\n    require(released);\r\n    _;\r\n  }\r\n\r\n  function release() onlyOwner public {\r\n    require(!released);\r\n    released = true;\r\n    Release();\r\n  }\r\n\r\n}\r\n\r\n\r\ncontract Managed is Releasable {\r\n\r\n  mapping (address => bool) public manager;\r\n  event SetManager(address _addr);\r\n  event UnsetManager(address _addr);\r\n\r\n  function Managed() public {\r\n    manager[msg.sender] = true;\r\n  }\r\n\r\n  modifier onlyManager() {\r\n    require(manager[msg.sender]);\r\n    _;\r\n  }\r\n\r\n  function setManager(address _addr) public onlyOwner {\r\n    require(_addr != address(0) && manager[_addr] == false);\r\n    manager[_addr] = true;\r\n\r\n    SetManager(_addr);\r\n  }\r\n\r\n  function unsetManager(address _addr) public onlyOwner {\r\n    require(_addr != address(0) && manager[_addr] == true);\r\n    manager[_addr] = false;\r\n\r\n    UnsetManager(_addr);\r\n  }\r\n\r\n}\r\n\r\n\r\ncontract ReleasableToken is StandardToken, Managed {\r\n\r\n  function transfer(address _to, uint256 _value) public afterReleased returns (bool) {\r\n    return super.transfer(_to, _value);\r\n  }\r\n\r\n  function saleTransfer(address _to, uint256 _value) public onlyManager returns (bool) {\r\n    return super.transfer(_to, _value);\r\n  }\r\n\r\n  function transferFrom(address _from, address _to, uint256 _value) public afterReleased returns (bool) {\r\n    return super.transferFrom(_from, _to, _value);\r\n  }\r\n\r\n  function approve(address _spender, uint256 _value) public afterReleased returns (bool) {\r\n    return super.approve(_spender, _value);\r\n  }\r\n\r\n  function increaseApproval(address _spender, uint _addedValue) public afterReleased returns (bool success) {\r\n    return super.increaseApproval(_spender, _addedValue);\r\n  }\r\n\r\n  function decreaseApproval(address _spender, uint _subtractedValue) public afterReleased returns (bool success) {\r\n    return super.decreaseApproval(_spender, _subtractedValue);\r\n  }\r\n\r\n}\r\n\r\n\r\ncontract BurnableToken is ReleasableToken {\r\n\r\n    event Burn(address indexed burner, uint256 value);\r\n\r\n    /**\r\n     * @dev Burns a specific amount of tokens.\r\n     * @param _value The amount of token to be burned.\r\n     */\r\n    function burn(uint256 _value) onlyManager public {\r\n        require(_value > 0);\r\n        require(_value <= balances[msg.sender]);\r\n        // no need to require value <= tota0lSupply, since that would imply the\r\n        // sender's balance is greater than the totalSupply, which *should* be an assertion failure\r\n\r\n        address burner = msg.sender;\r\n        balances[burner] = balances[burner].sub(_value);\r\n        totalSupply = totalSupply.sub(_value);\r\n        Burn(burner, _value);\r\n    }\r\n\r\n}\r\n\r\n\r\n/**\r\n  *  GANA\r\n  */\r\ncontract GANA is BurnableToken {\r\n\r\n  string public constant name = \"GANA\";\r\n  string public constant symbol = \"GANA\";\r\n  uint8 public constant decimals = 18;\r\n\r\n  event ClaimedTokens(address manager, address _token, uint256 claimedBalance);\r\n\r\n  function GANA() public {\r\n    totalSupply = 2000000000 * 1 ether;\r\n    balances[msg.sender] = totalSupply;\r\n  }\r\n\r\n  function claimTokens(address _token, uint256 _claimedBalance) public onlyManager afterReleased {\r\n    ERC20Basic token = ERC20Basic(_token);\r\n    uint256 tokenBalance = token.balanceOf(this);\r\n    require(tokenBalance >= _claimedBalance);\r\n\r\n    address manager = msg.sender;\r\n    token.transfer(manager, _claimedBalance);\r\n    ClaimedTokens(manager, _token, _claimedBalance);\r\n  }\r\n\r\n}\r\n\r\n\r\n/**\r\n  *  Whitelist contract\r\n  */\r\ncontract Whitelist is Ownable {\r\n\r\n   mapping (address => bool) public whitelist;\r\n   event Registered(address indexed _addr);\r\n   event Unregistered(address indexed _addr);\r\n\r\n   modifier onlyWhitelisted(address _addr) {\r\n     require(whitelist[_addr]);\r\n     _;\r\n   }\r\n\r\n   function isWhitelist(address _addr) public view returns (bool listed) {\r\n     return whitelist[_addr];\r\n   }\r\n\r\n   function registerAddress(address _addr) public onlyOwner {\r\n     require(_addr != address(0) && whitelist[_addr] == false);\r\n     whitelist[_addr] = true;\r\n     Registered(_addr);\r\n   }\r\n\r\n   function registerAddresses(address[] _addrs) public onlyOwner {\r\n     for(uint256 i = 0; i < _addrs.length; i++) {\r\n       require(_addrs[i] != address(0) && whitelist[_addrs[i]] == false);\r\n       whitelist[_addrs[i]] = true;\r\n       Registered(_addrs[i]);\r\n     }\r\n   }\r\n\r\n   function unregisterAddress(address _addr) public onlyOwner onlyWhitelisted(_addr) {\r\n       whitelist[_addr] = false;\r\n       Unregistered(_addr);\r\n   }\r\n\r\n   function unregisterAddresses(address[] _addrs) public onlyOwner {\r\n     for(uint256 i = 0; i < _addrs.length; i++) {\r\n       require(whitelist[_addrs[i]]);\r\n       whitelist[_addrs[i]] = false;\r\n       Unregistered(_addrs[i]);\r\n     }\r\n   }\r\n\r\n}\r\n\r\n\r\n/**\r\n  *  GANA PRE-SALE\r\n  */\r\ncontract GanaPreSale is Ownable {\r\n  using SafeMath for uint256;\r\n\r\n  GANA public gana;\r\n  Whitelist public whitelist;\r\n  address public wallet;\r\n  uint256 public hardCap   = 10000 ether; //presale cap\r\n  uint256 public weiRaised = 0;\r\n  uint256 public minCap    = 3 ether;\r\n  uint256 public rate      = 22000; // 1 ETH == 22,000 GANA\r\n  uint256 public defaultRate = 20000;\r\n\r\n  //uint256 public startTime = 1483228800; //TEST ONLY UTC 01/01/2017 00:00am\r\n  uint256 public startTime = 1523008800; //UTC 04/06/2018 10:00am\r\n  uint256 public endTime   = 1523786400; //UTC 04/15/2018 10:00am\r\n\r\n  event TokenPurchase(address indexed sender, address indexed buyer, uint256 weiAmount, uint256 ganaAmount);\r\n  event Refund(address indexed buyer, uint256 weiAmount);\r\n  event TransferToSafe();\r\n  event BurnAndReturnAfterEnded(uint256 burnAmount, uint256 returnAmount);\r\n\r\n  function GanaPreSale(address _gana, address _wallet, address _whitelist) public {\r\n    require(_wallet != address(0));\r\n    gana = GANA(_gana);\r\n    whitelist = Whitelist(_whitelist);\r\n    wallet = _wallet;\r\n  }\r\n\r\n  modifier onlyWhitelisted() {\r\n    require(whitelist.isWhitelist(msg.sender));\r\n    _;\r\n  }\r\n\r\n  // fallback function can be used to buy tokens\r\n  function () external payable {\r\n    buyGana(msg.sender);\r\n  }\r\n\r\n  function buyGana(address buyer) public onlyWhitelisted payable {\r\n    require(!hasEnded());\r\n    require(afterStart());\r\n    require(buyer != address(0));\r\n    require(buyer == msg.sender);\r\n    require(msg.value >= minCap);\r\n\r\n    uint256 weiAmount = msg.value;\r\n    //pre-calculate wei raise after buying\r\n    uint256 preCalWeiRaised = weiRaised.add(weiAmount);\r\n    uint256 ganaAmount;\r\n\r\n    if(preCalWeiRaised <= hardCap){\r\n      //the pre-calculate wei raise is less than the hard cap\r\n      ganaAmount = weiAmount.mul(rate);\r\n      gana.saleTransfer(buyer, ganaAmount);\r\n      weiRaised = preCalWeiRaised;\r\n      TokenPurchase(msg.sender, buyer, weiAmount, ganaAmount);\r\n    }else{\r\n      //the pre-calculate weiRaised is more than the hard cap\r\n      uint256 refundWeiAmount = preCalWeiRaised.sub(hardCap);\r\n      uint256 fundWeiAmount =  weiAmount.sub(refundWeiAmount);\r\n      ganaAmount = fundWeiAmount.mul(rate);\r\n      gana.saleTransfer(buyer, ganaAmount);\r\n      weiRaised = weiRaised.add(fundWeiAmount);\r\n      TokenPurchase(msg.sender, buyer, fundWeiAmount, ganaAmount);\r\n      buyer.transfer(refundWeiAmount);\r\n      Refund(buyer,refundWeiAmount);\r\n    }\r\n  }\r\n\r\n  //Was it sold out or sale overdue\r\n  function hasEnded() public view returns (bool) {\r\n    bool hardCapReached = weiRaised >= hardCap; // balid cap\r\n    return hardCapReached || afterEnded();\r\n  }\r\n\r\n  function afterEnded() internal constant returns (bool) {\r\n    return now > endTime;\r\n  }\r\n\r\n  function afterStart() internal constant returns (bool) {\r\n    return now >= startTime;\r\n  }\r\n\r\n  function transferToSafe() onlyOwner public {\r\n    require(hasEnded());\r\n    wallet.transfer(this.balance);\r\n    TransferToSafe();\r\n  }\r\n\r\n  /**\r\n  * @dev burn unsold token and return bonus token\r\n  * @param reserveWallet reserve pool address\r\n  */\r\n  function burnAndReturnAfterEnded(address reserveWallet) onlyOwner public {\r\n    require(reserveWallet != address(0));\r\n    require(hasEnded());\r\n    uint256 unsoldWei = hardCap.sub(weiRaised);\r\n    require(unsoldWei > 0);\r\n    uint256 unsoldGanaAmount = gana.balanceOf(this);\r\n    uint256 burnGanaAmount = unsoldWei.mul(defaultRate);\r\n    uint256 bonusGanaAmount = unsoldGanaAmount.sub(burnGanaAmount);\r\n    gana.burn(burnGanaAmount);\r\n    gana.saleTransfer(reserveWallet, bonusGanaAmount);\r\n    BurnAndReturnAfterEnded(burnGanaAmount, bonusGanaAmount);\r\n  }\r\n\r\n  /**\r\n  * @dev emergency function before sale\r\n  * @param returnAddress return token address\r\n  */\r\n  function returnGanaBeforeSale(address returnAddress) onlyOwner public {\r\n    require(returnAddress != address(0));\r\n    require(weiRaised == 0);\r\n    uint256 returnGana = gana.balanceOf(this);\r\n    gana.saleTransfer(returnAddress, returnGana);\r\n  }\r\n\r\n}\r\n",
  "sourcePath": "C:\\ProjectGana\\ico-contracts\\contracts\\GanaPreSale.sol",
  "compiler": {
    "name": "solc",
    "version": "0.4.18+commit.9cf6e910.Emscripten.clang"
  },
  "schemaVersion": "1.0.1",
  "updatedAt": "2018-03-15T13:35:57.139Z"
}