{
  "contractName": "Whitelist",
  "abi": [
    {
      "constant": false,
      "inputs": [
        {
          "name": "_addr",
          "type": "address"
        }
      ],
      "name": "unregisterAddress",
      "outputs": [],
      "payable": false,
      "stateMutability": "nonpayable",
      "type": "function"
    },
    {
      "constant": false,
      "inputs": [
        {
          "name": "_addrs",
          "type": "address[]"
        }
      ],
      "name": "unregisterAddresses",
      "outputs": [],
      "payable": false,
      "stateMutability": "nonpayable",
      "type": "function"
    },
    {
      "constant": false,
      "inputs": [
        {
          "name": "_addrs",
          "type": "address[]"
        }
      ],
      "name": "registerAddresses",
      "outputs": [],
      "payable": false,
      "stateMutability": "nonpayable",
      "type": "function"
    },
    {
      "constant": true,
      "inputs": [],
      "name": "owner",
      "outputs": [
        {
          "name": "",
          "type": "address"
        }
      ],
      "payable": false,
      "stateMutability": "view",
      "type": "function"
    },
    {
      "constant": true,
      "inputs": [
        {
          "name": "",
          "type": "address"
        }
      ],
      "name": "whitelist",
      "outputs": [
        {
          "name": "",
          "type": "bool"
        }
      ],
      "payable": false,
      "stateMutability": "view",
      "type": "function"
    },
    {
      "constant": false,
      "inputs": [
        {
          "name": "_addr",
          "type": "address"
        }
      ],
      "name": "registerAddress",
      "outputs": [],
      "payable": false,
      "stateMutability": "nonpayable",
      "type": "function"
    },
    {
      "constant": true,
      "inputs": [
        {
          "name": "_addr",
          "type": "address"
        }
      ],
      "name": "isWhitelist",
      "outputs": [
        {
          "name": "listed",
          "type": "bool"
        }
      ],
      "payable": false,
      "stateMutability": "view",
      "type": "function"
    },
    {
      "constant": false,
      "inputs": [
        {
          "name": "newOwner",
          "type": "address"
        }
      ],
      "name": "transferOwnership",
      "outputs": [],
      "payable": false,
      "stateMutability": "nonpayable",
      "type": "function"
    },
    {
      "anonymous": false,
      "inputs": [
        {
          "indexed": true,
          "name": "_addr",
          "type": "address"
        }
      ],
      "name": "Registered",
      "type": "event"
    },
    {
      "anonymous": false,
      "inputs": [
        {
          "indexed": true,
          "name": "_addr",
          "type": "address"
        }
      ],
      "name": "Unregistered",
      "type": "event"
    },
    {
      "anonymous": false,
      "inputs": [
        {
          "indexed": true,
          "name": "previousOwner",
          "type": "address"
        },
        {
          "indexed": true,
          "name": "newOwner",
          "type": "address"
        }
      ],
      "name": "OwnershipTransferred",
      "type": "event"
    }
  ],
  "bytecode": "0x6060604052336000806101000a81548173ffffffffffffffffffffffffffffffffffffffff021916908373ffffffffffffffffffffffffffffffffffffffff160217905550610ba5806100536000396000f30060606040526004361061008d576000357c0100000000000000000000000000000000000000000000000000000000900463ffffffff168062f7c5be146100925780630136356d146100cb578063846153b5146101255780638da5cb5b1461017f5780639b19251a146101d4578063a8a5400814610225578063c683630d1461025e578063f2fde38b146102af575b600080fd5b341561009d57600080fd5b6100c9600480803573ffffffffffffffffffffffffffffffffffffffff169060200190919050506102e8565b005b34156100d657600080fd5b61012360048080359060200190820180359060200190808060200260200160405190810160405280939291908181526020018383602002808284378201915050505050509190505061043b565b005b341561013057600080fd5b61017d6004808035906020019082018035906020019080806020026020016040519081016040528093929190818152602001838360200280828437820191505050505050919050506105ef565b005b341561018a57600080fd5b6101926107f9565b604051808273ffffffffffffffffffffffffffffffffffffffff1673ffffffffffffffffffffffffffffffffffffffff16815260200191505060405180910390f35b34156101df57600080fd5b61020b600480803573ffffffffffffffffffffffffffffffffffffffff1690602001909190505061081e565b604051808215151515815260200191505060405180910390f35b341561023057600080fd5b61025c600480803573ffffffffffffffffffffffffffffffffffffffff1690602001909190505061083e565b005b341561026957600080fd5b610295600480803573ffffffffffffffffffffffffffffffffffffffff169060200190919050506109ce565b604051808215151515815260200191505060405180910390f35b34156102ba57600080fd5b6102e6600480803573ffffffffffffffffffffffffffffffffffffffff16906020019091905050610a24565b005b6000809054906101000a900473ffffffffffffffffffffffffffffffffffffffff1673ffffffffffffffffffffffffffffffffffffffff163373ffffffffffffffffffffffffffffffffffffffff1614151561034357600080fd5b80600160008273ffffffffffffffffffffffffffffffffffffffff1673ffffffffffffffffffffffffffffffffffffffff16815260200190815260200160002060009054906101000a900460ff16151561039c57600080fd5b6000600160008473ffffffffffffffffffffffffffffffffffffffff1673ffffffffffffffffffffffffffffffffffffffff16815260200190815260200160002060006101000a81548160ff0219169083151502179055508173ffffffffffffffffffffffffffffffffffffffff167f75cd6de711483e11488a1cd9b66172abccb9e5c19572f92015a7880f0c8c0edc60405160405180910390a25050565b60008060009054906101000a900473ffffffffffffffffffffffffffffffffffffffff1673ffffffffffffffffffffffffffffffffffffffff163373ffffffffffffffffffffffffffffffffffffffff1614151561049857600080fd5b600090505b81518110156105eb576001600083838151811015156104b857fe5b9060200190602002015173ffffffffffffffffffffffffffffffffffffffff1673ffffffffffffffffffffffffffffffffffffffff16815260200190815260200160002060009054906101000a900460ff16151561051557600080fd5b600060016000848481518110151561052957fe5b9060200190602002015173ffffffffffffffffffffffffffffffffffffffff1673ffffffffffffffffffffffffffffffffffffffff16815260200190815260200160002060006101000a81548160ff021916908315150217905550818181518110151561059257fe5b9060200190602002015173ffffffffffffffffffffffffffffffffffffffff167f75cd6de711483e11488a1cd9b66172abccb9e5c19572f92015a7880f0c8c0edc60405160405180910390a2808060010191505061049d565b5050565b60008060009054906101000a900473ffffffffffffffffffffffffffffffffffffffff1673ffffffffffffffffffffffffffffffffffffffff163373ffffffffffffffffffffffffffffffffffffffff1614151561064c57600080fd5b600090505b81518110156107f557600073ffffffffffffffffffffffffffffffffffffffff16828281518110151561068057fe5b9060200190602002015173ffffffffffffffffffffffffffffffffffffffff16141580156107155750600015156001600084848151811015156106bf57fe5b9060200190602002015173ffffffffffffffffffffffffffffffffffffffff1673ffffffffffffffffffffffffffffffffffffffff16815260200190815260200160002060009054906101000a900460ff161515145b151561072057600080fd5b6001806000848481518110151561073357fe5b9060200190602002015173ffffffffffffffffffffffffffffffffffffffff1673ffffffffffffffffffffffffffffffffffffffff16815260200190815260200160002060006101000a81548160ff021916908315150217905550818181518110151561079c57fe5b9060200190602002015173ffffffffffffffffffffffffffffffffffffffff167f2d3734a8e47ac8316e500ac231c90a6e1848ca2285f40d07eaa52005e4b3a0e960405160405180910390a28080600101915050610651565b5050565b6000809054906101000a900473ffffffffffffffffffffffffffffffffffffffff1681565b60016020528060005260406000206000915054906101000a900460ff1681565b6000809054906101000a900473ffffffffffffffffffffffffffffffffffffffff1673ffffffffffffffffffffffffffffffffffffffff163373ffffffffffffffffffffffffffffffffffffffff1614151561089957600080fd5b600073ffffffffffffffffffffffffffffffffffffffff168173ffffffffffffffffffffffffffffffffffffffff1614158015610926575060001515600160008373ffffffffffffffffffffffffffffffffffffffff1673ffffffffffffffffffffffffffffffffffffffff16815260200190815260200160002060009054906101000a900460ff161515145b151561093157600080fd5b60018060008373ffffffffffffffffffffffffffffffffffffffff1673ffffffffffffffffffffffffffffffffffffffff16815260200190815260200160002060006101000a81548160ff0219169083151502179055508073ffffffffffffffffffffffffffffffffffffffff167f2d3734a8e47ac8316e500ac231c90a6e1848ca2285f40d07eaa52005e4b3a0e960405160405180910390a250565b6000600160008373ffffffffffffffffffffffffffffffffffffffff1673ffffffffffffffffffffffffffffffffffffffff16815260200190815260200160002060009054906101000a900460ff169050919050565b6000809054906101000a900473ffffffffffffffffffffffffffffffffffffffff1673ffffffffffffffffffffffffffffffffffffffff163373ffffffffffffffffffffffffffffffffffffffff16141515610a7f57600080fd5b600073ffffffffffffffffffffffffffffffffffffffff168173ffffffffffffffffffffffffffffffffffffffff1614151515610abb57600080fd5b8073ffffffffffffffffffffffffffffffffffffffff166000809054906101000a900473ffffffffffffffffffffffffffffffffffffffff1673ffffffffffffffffffffffffffffffffffffffff167f8be0079c531659141344cd1fd0a4f28419497f9722a3daafe3b4186f6b6457e060405160405180910390a3806000806101000a81548173ffffffffffffffffffffffffffffffffffffffff021916908373ffffffffffffffffffffffffffffffffffffffff160217905550505600a165627a7a72305820fc63b67d1d8c908428a7de45dbb128deefc788ac8ec992600043dd252d94f41c0029",
  "source": "pragma solidity ^0.4.18;\r\n\r\n\r\n/**\r\n * @title Ownable\r\n * @dev The Ownable contract has an owner address, and provides basic authorization control\r\n * functions, this simplifies the implementation of \"user permissions\".\r\n */\r\ncontract Ownable {\r\n\r\n  address public owner;\r\n\r\n  event OwnershipTransferred(address indexed previousOwner, address indexed newOwner);\r\n\r\n  /**\r\n   * @dev The Ownable constructor sets the original `owner` of the contract to the sender\r\n   * account.\r\n   */\r\n  function Ownable() public {\r\n    owner = msg.sender;\r\n  }\r\n\r\n  /**\r\n   * @dev Throws if called by any account other than the owner.\r\n   */\r\n  modifier onlyOwner() {\r\n    require(msg.sender == owner);\r\n    _;\r\n  }\r\n\r\n  /**\r\n   * @dev Allows the current owner to transfer control of the contract to a newOwner.\r\n   * @param newOwner The address to transfer ownership to.\r\n   */\r\n  function transferOwnership(address newOwner) public onlyOwner {\r\n    require(newOwner != address(0));\r\n    OwnershipTransferred(owner, newOwner);\r\n    owner = newOwner;\r\n  }\r\n\r\n}\r\n\r\n\r\n/**\r\n  *  Whitelist contract\r\n  */\r\ncontract Whitelist is Ownable {\r\n\r\n   mapping (address => bool) public whitelist;\r\n   event Registered(address indexed _addr);\r\n   event Unregistered(address indexed _addr);\r\n\r\n   modifier onlyWhitelisted(address _addr) {\r\n     require(whitelist[_addr]);\r\n     _;\r\n   }\r\n\r\n   function isWhitelist(address _addr) public view returns (bool listed) {\r\n     return whitelist[_addr];\r\n   }\r\n\r\n   function registerAddress(address _addr) public onlyOwner {\r\n     require(_addr != address(0) && whitelist[_addr] == false);\r\n     whitelist[_addr] = true;\r\n     Registered(_addr);\r\n   }\r\n\r\n   function registerAddresses(address[] _addrs) public onlyOwner {\r\n     for(uint256 i = 0; i < _addrs.length; i++) {\r\n       require(_addrs[i] != address(0) && whitelist[_addrs[i]] == false);\r\n       whitelist[_addrs[i]] = true;\r\n       Registered(_addrs[i]);\r\n     }\r\n   }\r\n\r\n   function unregisterAddress(address _addr) public onlyOwner onlyWhitelisted(_addr) {\r\n       whitelist[_addr] = false;\r\n       Unregistered(_addr);\r\n   }\r\n\r\n   function unregisterAddresses(address[] _addrs) public onlyOwner {\r\n     for(uint256 i = 0; i < _addrs.length; i++) {\r\n       require(whitelist[_addrs[i]]);\r\n       whitelist[_addrs[i]] = false;\r\n       Unregistered(_addrs[i]);\r\n     }\r\n   }\r\n\r\n}\r\n",
  "sourcePath": "C:\\ProjectGana\\ico-contracts\\contracts\\Whitelist.sol",
  "compiler": {
    "name": "solc",
    "version": "0.4.18+commit.9cf6e910.Emscripten.clang"
  },
  "schemaVersion": "1.0.1",
  "updatedAt": "2018-03-15T13:35:57.142Z"
}